{
  "_format": "hh-sol-artifact-1",
  "contractName": "PokemonPortal",
  "sourceName": "contracts/PokemonPortal.sol",
  "abi": [
    {
      "inputs": [],
      "stateMutability": "payable",
      "type": "constructor"
    },
    {
      "anonymous": false,
      "inputs": [
        {
          "indexed": true,
          "internalType": "address",
          "name": "from",
          "type": "address"
        },
        {
          "indexed": false,
          "internalType": "string",
          "name": "message",
          "type": "string"
        },
        {
          "indexed": false,
          "internalType": "uint256",
          "name": "timestamp",
          "type": "uint256"
        }
      ],
      "name": "NewPokemon",
      "type": "event"
    },
    {
      "inputs": [
        {
          "internalType": "string",
          "name": "_message",
          "type": "string"
        }
      ],
      "name": "addPokemon",
      "outputs": [],
      "stateMutability": "nonpayable",
      "type": "function"
    },
    {
      "inputs": [],
      "name": "getAllPokemon",
      "outputs": [
        {
          "components": [
            {
              "internalType": "address",
              "name": "user",
              "type": "address"
            },
            {
              "internalType": "string",
              "name": "pokemonName",
              "type": "string"
            },
            {
              "internalType": "uint256",
              "name": "timestamp",
              "type": "uint256"
            }
          ],
          "internalType": "struct PokemonPortal.Pokemon[]",
          "name": "",
          "type": "tuple[]"
        }
      ],
      "stateMutability": "view",
      "type": "function"
    },
    {
      "inputs": [],
      "name": "getTotalPokemon",
      "outputs": [
        {
          "internalType": "uint256",
          "name": "",
          "type": "uint256"
        }
      ],
      "stateMutability": "view",
      "type": "function"
    }
  ],
  "bytecode": "0x6080604052620000336040518060600160405280602281526020016200108d602291396200003960201b620004ab1760201c565b620001cd565b620000d98160405160240162000050919062000146565b6040516020818303038152906040527f41304fac000000000000000000000000000000000000000000000000000000007bffffffffffffffffffffffffffffffffffffffffffffffffffffffff19166020820180517bffffffffffffffffffffffffffffffffffffffffffffffffffffffff8381831617835250505050620000dc60201b60201c565b50565b60008151905060006a636f6e736f6c652e6c6f679050602083016000808483855afa5050505050565b600062000112826200016a565b6200011e818562000175565b93506200013081856020860162000186565b6200013b81620001bc565b840191505092915050565b6000602082019050818103600083015262000162818462000105565b905092915050565b600081519050919050565b600082825260208201905092915050565b60005b83811015620001a657808201518184015260208101905062000189565b83811115620001b6576000848401525b50505050565b6000601f19601f8301169050919050565b610eb080620001dd6000396000f3fe608060405234801561001057600080fd5b50600436106100415760003560e01c8063353bb2971461004657806394bea12914610062578063bff2501814610080575b600080fd5b610060600480360381019061005b91906107b3565b61009e565b005b61006a610351565b6040516100779190610b22565b60405180910390f35b61008861035a565b60405161009591906109f9565b60405180910390f35b60016000808282546100b09190610c04565b925050819055506100f76040518060400160405280601481526020017f257320706f6b656d6f6e206973206164646564210000000000000000000000008152503383610544565b600260405180606001604052803373ffffffffffffffffffffffffffffffffffffffff16815260200183815260200142815250908060018154018082558091505060019003906000526020600020906003020160009091909190915060008201518160000160006101000a81548173ffffffffffffffffffffffffffffffffffffffff021916908373ffffffffffffffffffffffffffffffffffffffff16021790555060208201518160010190805190602001906101b69291906106a8565b506040820151816002015550503373ffffffffffffffffffffffffffffffffffffffff167fdeff3f52b46bcaa8181ceb74db1f248746465c6c95e7d4989316eb87ff112cd9824260405161020b929190610ab2565b60405180910390a26102526040518060400160405280600781526020017f257320776f6e2100000000000000000000000000000000000000000000000000815250336105e3565b6000655af3107a40009050478111156102a0576040517f08c379a000000000000000000000000000000000000000000000000000000000815260040161029790610ae2565b60405180910390fd5b60003373ffffffffffffffffffffffffffffffffffffffff16826040516102c6906109e4565b60006040518083038185875af1925050503d8060008114610303576040519150601f19603f3d011682016040523d82523d6000602084013e610308565b606091505b505090508061034c576040517f08c379a000000000000000000000000000000000000000000000000000000000815260040161034390610b02565b60405180910390fd5b505050565b60008054905090565b60606002805480602002602001604051908101604052809291908181526020016000905b828210156104a257838290600052602060002090600302016040518060600160405290816000820160009054906101000a900473ffffffffffffffffffffffffffffffffffffffff1673ffffffffffffffffffffffffffffffffffffffff1673ffffffffffffffffffffffffffffffffffffffff16815260200160018201805461040790610cd8565b80601f016020809104026020016040519081016040528092919081815260200182805461043390610cd8565b80156104805780601f1061045557610100808354040283529160200191610480565b820191906000526020600020905b81548152906001019060200180831161046357829003601f168201915b505050505081526020016002820154815250508152602001906001019061037e565b50505050905090565b610541816040516024016104bf9190610a1b565b6040516020818303038152906040527f41304fac000000000000000000000000000000000000000000000000000000007bffffffffffffffffffffffffffffffffffffffffffffffffffffffff19166020820180517bffffffffffffffffffffffffffffffffffffffffffffffffffffffff838183161783525050505061067f565b50565b6105de83838360405160240161055c93929190610a6d565b6040516020818303038152906040527fe0e9ad4f000000000000000000000000000000000000000000000000000000007bffffffffffffffffffffffffffffffffffffffffffffffffffffffff19166020820180517bffffffffffffffffffffffffffffffffffffffffffffffffffffffff838183161783525050505061067f565b505050565b61067b82826040516024016105f9929190610a3d565b6040516020818303038152906040527f319af333000000000000000000000000000000000000000000000000000000007bffffffffffffffffffffffffffffffffffffffffffffffffffffffff19166020820180517bffffffffffffffffffffffffffffffffffffffffffffffffffffffff838183161783525050505061067f565b5050565b60008151905060006a636f6e736f6c652e6c6f679050602083016000808483855afa5050505050565b8280546106b490610cd8565b90600052602060002090601f0160209004810192826106d6576000855561071d565b82601f106106ef57805160ff191683800117855561071d565b8280016001018555821561071d579182015b8281111561071c578251825591602001919060010190610701565b5b50905061072a919061072e565b5090565b5b8082111561074757600081600090555060010161072f565b5090565b600061075e61075984610b62565b610b3d565b90508281526020810184848401111561077657600080fd5b610781848285610c96565b509392505050565b600082601f83011261079a57600080fd5b81356107aa84826020860161074b565b91505092915050565b6000602082840312156107c557600080fd5b600082013567ffffffffffffffff8111156107df57600080fd5b6107eb84828501610789565b91505092915050565b60006108008383610976565b905092915050565b61081181610c5a565b82525050565b61082081610c5a565b82525050565b600061083182610ba3565b61083b8185610bc6565b93508360208202850161084d85610b93565b8060005b85811015610889578484038952815161086a85826107f4565b945061087583610bb9565b925060208a01995050600181019050610851565b50829750879550505050505092915050565b60006108a682610bae565b6108b08185610be2565b93506108c0818560208601610ca5565b6108c981610dc8565b840191505092915050565b60006108df82610bae565b6108e98185610bf3565b93506108f9818560208601610ca5565b61090281610dc8565b840191505092915050565b600061091a603483610bf3565b915061092582610dd9565b604082019050919050565b600061093d602783610bf3565b915061094882610e28565b604082019050919050565b6000610960600083610bd7565b915061096b82610e77565b600082019050919050565b600060608301600083015161098e6000860182610808565b50602083015184820360208601526109a6828261089b565b91505060408301516109bb60408601826109c6565b508091505092915050565b6109cf81610c8c565b82525050565b6109de81610c8c565b82525050565b60006109ef82610953565b9150819050919050565b60006020820190508181036000830152610a138184610826565b905092915050565b60006020820190508181036000830152610a3581846108d4565b905092915050565b60006040820190508181036000830152610a5781856108d4565b9050610a666020830184610817565b9392505050565b60006060820190508181036000830152610a8781866108d4565b9050610a966020830185610817565b8181036040830152610aa881846108d4565b9050949350505050565b60006040820190508181036000830152610acc81856108d4565b9050610adb60208301846109d5565b9392505050565b60006020820190508181036000830152610afb8161090d565b9050919050565b60006020820190508181036000830152610b1b81610930565b9050919050565b6000602082019050610b3760008301846109d5565b92915050565b6000610b47610b58565b9050610b538282610d0a565b919050565b6000604051905090565b600067ffffffffffffffff821115610b7d57610b7c610d99565b5b610b8682610dc8565b9050602081019050919050565b6000819050602082019050919050565b600081519050919050565b600081519050919050565b6000602082019050919050565b600082825260208201905092915050565b600081905092915050565b600082825260208201905092915050565b600082825260208201905092915050565b6000610c0f82610c8c565b9150610c1a83610c8c565b9250827fffffffffffffffffffffffffffffffffffffffffffffffffffffffffffffffff03821115610c4f57610c4e610d3b565b5b828201905092915050565b6000610c6582610c6c565b9050919050565b600073ffffffffffffffffffffffffffffffffffffffff82169050919050565b6000819050919050565b82818337600083830152505050565b60005b83811015610cc3578082015181840152602081019050610ca8565b83811115610cd2576000848401525b50505050565b60006002820490506001821680610cf057607f821691505b60208210811415610d0457610d03610d6a565b5b50919050565b610d1382610dc8565b810181811067ffffffffffffffff82111715610d3257610d31610d99565b5b80604052505050565b7f4e487b7100000000000000000000000000000000000000000000000000000000600052601160045260246000fd5b7f4e487b7100000000000000000000000000000000000000000000000000000000600052602260045260246000fd5b7f4e487b7100000000000000000000000000000000000000000000000000000000600052604160045260246000fd5b6000601f19601f8301169050919050565b7f547279696e6720746f207769746864726177206d6f7265206d6f6e657920746860008201527f616e2074686520636f6e7472616374206861732e000000000000000000000000602082015250565b7f4661696c656420746f207769746864726177206d6f6e65792066726f6d20636f60008201527f6e74726163742e00000000000000000000000000000000000000000000000000602082015250565b5056fea26469706673582212208b6fdb9b70092d1d579a897eb1f5aaa12b1fc3e7fefdaaef2c4398a25744d08764736f6c63430008040033496d206120737461727420636f6e74726163742c206c6f6f6b206174206d6520676f",
  "linkReferences": {},
  "deployedLinkReferences": {}
}